:100000004038002099A60000B517010085A6000021
:1000100085A6000085A6000085A60000000000005F
:100020000000000000000000000000004DA80000DB
:1000300085A600000000000019A8000085A60000A9
:10004000F9A90000831F0100F9A90000F9A9000027
:10005000F9A90000F9A90000F9A90000F9A9000018
:10006000391F0100F9A90000F9A900006D1F010066
:10007000F9A90000F9A90000F9A90000F9A90000F8
:10008000F9A90000F9A90000F9A90000F9A90000E8
:10009000F9A90000F9A90000F9A90000F9A90000D8
:1000A000F9A90000F9A90000F9A90000F9A90000C8
:0800B000F9A90000F9A9000004
:1000B800064B074A9B7802604FF494728280C371A2
:1000C8000822FF2382710372704700BFF8030020E3
:1000D8005D850000F8B5C41D002824F00704054616
:1000E80014BF2046002000F0EDFA071E02DA6FF078
:1000F8000B00F8BD0DB9FC42F9D4284EB1797079DE
:10010800337AF2790331033007F065FB0028EEDB20
:10011800317873783C440334002D194424F00304E7
:1001280000FB01F114BF2046002000F057FC2044DA
:100138000DB90028DBDBB2780346B2B1F17BF37866
:1001480011441944FF29D2DC0330002D20F00304A8
:1001580014BF204600207289C9B200F095FC031E26
:10016800C5DB23440DB9002BC1DB317B81B1B278EB
:1001780072B10733002D23F0070414BF2046002076
:1001880001F06EFE031EB2DB23440DB9002BAEDB7B
:10019800002D0CBF18460020ABE700BFF803002075
:1001A8001FB572B6184B9D6AE5B9BFF34F8F174953
:1001B800174BCA6802F4E0621343CB60BFF34F8F5A
:1001C80000BFFDE7B2FBF6F2DCB20133002AF9D139
:1001D80004F110036B4403F80C2C0A2234B901A86B
:1001E800A847E2E7024600230A26EDE7631E04AEAD
:1001F800DCB256FA83F3B0FBF2F602FB160030309D
:1002080003F80C0C3046E9E7F803002000ED00E0A5
:100218000400FA0507B50C4B1A7A8DF80120DA7933
:100228008DF8002068469A795B79ADF80420ADF81E
:10023800023001F0DBF818B1D9210320FFF7B0FF35
:1002480003B05DF804FB00BFF803002038B505468D
:1002580070B306F0E5FA10B94FF0FF3038BD08F07A
:1002680005FCB0F5FA7FF7D8144C1548A5620025AF
:1002780000F0A2F926222946204684F82C5006F0E0
:10028800DBFE01236370A3701B23637140F21B33F1
:10029800E380022323721F23638108232373EFF370
:1002A800108472B600F0C6FC2CB962B62046D5E7B9
:1002B8006FF01500D2E72846D0E700BFF80300200A
:1002C8001D02000010B500283CD1214C94F82C30B8
:1002D800032B34D059B1002A37D00239052931D837
:1002E800DFE801F00314223025281378637000201A
:1002F800FFF7F0FE0028B7BF0123022384F82C3053
:100308006FF00B00A8BF84F82C3010BD9378E3B1D0
:10031800D378D3B113781A2B17D953781A2B14D949
:100328001368C4F80530E2E71378A370DFE7138891
:100338006381DCE71388FF2B07D82373D7E74FF0D7
:10034800FF30E2E76FF02C00DFE76FF01500DCE725
:10035800F8030020F8B50D46064630B329B311F06E
:10036800070422D1124F97F82C30012B02D16FF0DD
:100378000B00F8BD032B02D14FF0FF30F9E700F076
:100388005FF80028F8D02846FFF7A4FE0028EEDB27
:1003980008F0B2FA3046214601F06CF8FFF73AFF50
:1003A800032387F82C302046E3E76FF01500E0E7D9
:1003B800F803002010B5074C94F82C30032B03D118
:1003C80001F070F801F06CFC07F0FBFA002084F8EB
:1003D8002C0010BDF803002050B1074B03F11402A4
:1003E80053F8041B40F8041B9342F9D100207047CE
:1003F8006FF01500704700BF1344010010B5074B9C
:1004080093F82C403CB901F01BF80120044900F096
:1004180051F9204610BD4FF0FF30FBE7F8030020EC
:10042800B9000000024B02681A600020704700BF44
:1004380028040020014B1B68184700BF280400202F
:10044800024B1868003818BF0120704728040020A4
:100458002DE9F743294E0446071D2848376001F067
:100468002FFC0228054607D12449204606F050FEF5
:10047800284603B0BDE8F083042838D13378072B29
:1004880018D13E2000F050F878B9F378327901A9F4
:1004980043EA02236846ADF8003007F0E1F8002887
:1004A800DBD053210820FFF77BFE052000F074F80D
:1004B8000028EAD03146204606F08FFEB0F5817F4D
:1004C80001D37221EEE70028C7D094F8008094F891
:1004D8000290404600F028F80028BED0B8F13E0F40
:1004E800C6D1484600F058F80028C1D1B5E7082819
:1004F800BED10249204606F03AFEB9E72C04002096
:10050800074B4FF0FF3141F6FF72C3E9001205496E
:100518000022C1E900221F21C3E90212704700BF6F
:1005280000000020700400203F280CD801380B4B35
:10053800C0F3421200F01F0053F8223023FA00F0F3
:1005480000F001007047FF2806D04038C0F342127F
:10055800034B00F01F00EFE7012070470000002068
:10056800700400200146074B006849681A4603C218
:1005780040F48C221A6041F0107242F4FF625A6013
:10058800704700BF000000200246024B0068516817
:1005980003C37047080000200138064BC0F342121D
:1005A80003EB820300F01F009B6823FA00F000F0C1
:1005B8000100704700000020014B1860704700BF21
:1005C8007804002010B5FFF79BFF07F0D6FB034B1C
:1005D8001B68044603B19847204610BD78040020E4
:1005E8000B880288F0B5C3F30E049EB204F114031D
:1005F800C57CC35A02352A442B4497B213FA82F3B6
:10060800013B4288B3FBF7F313FB07439BB29A42C3
:10061800044A93BF22EA0603324013439BB20B807D
:10062800F0BD00BF0080FFFF4A1E062A08B503463A
:10063800084604D84FF4D1711520FFF7B1FD094AD7
:10064800914202D940F2A311F6E711B903B119603A
:1006580008BD2BB11B680022C3E901211A1D1A60CD
:100668000430F5E7FAFFFF7F10B5114B00EB4104AA
:100678001A786389B3FBF2F303FB0223013A1A44A5
:10068800B2F5706F027928BF00231A448378B2FB51
:10069800F3F0194403FB1020091AB1FBF3F003FB34
:1006A800101313446FEA43436FEA5343638110BD49
:1006B8007C040020024B03EB80035960704700BFA5
:1006C8007C0400202DE9F04F10F0070A85B005469C
:1006D80004D040F261111720FFF762FD554F07F172
:1006E8000C06B1460446B0464FF0010B57F8043BE0
:1006F8008DF80BA03BB101A898479DF80A30082B4C
:1007080001D9E821E7E79DF80B1081BB05B13160FD
:10071800B94506F10406E9D12DB3DFF81CE1002341
:100728008EF800301E46022258F82200013A60B1C5
:1007380090F804A08178BAF1FF0F66D14FF0000756
:100748008E4207713CBFCEB20123511CECD10BB1D4
:100758008EF80060022640F6FF6A58F82670002FCF
:1007680065D1013EF9D2601B05B0BDE8F08F9DF858
:100778000AC0BCF1020FE64601F1050238BF4FF08E
:10078800020E0EF1FF3004EB42040444CEF10000E7
:100798002040BDF808406444013CCCF1000C04EA58
:1007A8000C04B4F5803F4FEA420301D3F82192E7E5
:1007B80075B1C31A336099701C8083F803B09DF833
:1007C8000C201A71019A1A814FEA124CA3F806C03C
:1007D80004FB01049CE758F82C90B9F1000F06D0EF
:1007E80099F804B0D34504BF99F802904F440CF12E
:1007F800FF3CBCF1000FEEDA3944FF29A0D90BB158
:100808008EF8006040F2271165E794460027F0E76C
:1008180007EB41033846A3F80AA0FFF725FF09F1C3
:100828000109BB785FFA89F18B42F1D899E74FF05B
:100838000009F6E7800400207C040020F8B54FF694
:10084800FF730380184B03EB810305461869B8B1A1
:1008580086780379B3FBF6F206FB1233DBB219464E
:100868000A1D00EB4202B2F902705488002F09DB1E
:100878000131B1FBF6F206FB1211C9B28B42EFD17E
:100888000020F8BDFF29FBD0C4F30E03C4782B80E9
:1008980024B94FF4D5711720FFF782FC5380BDE8C7
:1008A800F84006F077BF00BF7C0400201D4B03EB27
:1008B800810370B51C69054644B3030404D54FF49D
:1008C800DC711720FFF76CFC0146204606F044FF58
:1008D800FF28014604D02046BDE8704006F05ABF04
:1008E800A078B5FBF0F300FB1353DBB219460A1DE1
:1008F80004EB4206B6F90260002E09DB0131B1FBB8
:10090800F0F200FB1211C9B28B42F0D1002070BD89
:10091800FF29FBD08B4204EB42021CBF0023E3708B
:100928005580D8E77C040020094B03EB810310B500
:100938001C690146204606F00FFFFF28014604D037
:100948002046BDE8104006F025BF002010BD00BFBE
:100958007C040020F8B5104B03EB810307461C69A3
:100968000146204606F0F8FEFF28054611D0E68825
:10097800238953EA064606D00146204606F00AFFB8
:1009880001463846B04720462946FFF76DFE00204D
:10099800F8BD0520FCE700BF7C04002038B50E4BED
:1009A800827903EB82030446186908B9052038BD2B
:1009B8008278E1799142F9D24B1CE37100EB410353
:1009C8005D89B3F90A30002BF3DBA58006F0E2FE5F
:1009D80020600020EBE700BF7C04002070B50446CF
:1009E80010F003000E4603D04F211820FFF7D8FB64
:1009F800FFF71AFE054624B1034831460460FFF7A5
:100A080013FE284670BD00BF980400202DE9F14F61
:100A1800DFF870B09DF828A09DF82C901E46DBF8F2
:100A2800003007460D4690461BB961211820FFF794
:100A3800B7FB52460921404606F03BFE4A4684B2BF
:100A48000921304606F035FE14FA80F1DBF8000083
:100A580006F05EFE386018B9286001B0BDE8F08F76
:100A680004442C60386853464146092206F000FECB
:100A780028684B460922314601B0BDE8F04F06F020
:100A8800F7BD00BF980400201F2AF8B50446134696
:100A98000ED89200033222F00303B3F5803F2DD223
:100AA800184DACB1A00710D05F210920FFF778FBE3
:100AB800FF2B4FEA420204D9FF339A42A8BF1A46D5
:100AC800E8E77C2AB8BF7C22E4E729706C602B81B8
:100AD80022F0030201EB81031204D80001276B689E
:100AE800120C0025EEB28E4200D3F8BD14B12618C0
:100AF8001F705E60104401352833F3E74FF0FF3074
:100B0800F3E700BF9C04002038B5144A14785368F2
:100B18000021C8B2844203D8AB210920FFF740FB6B
:100B28001846013105782833002DF2D00021817054
:100B380001241289447044688161C161920800F1FE
:100B48002001051D21F8022B994245F8044B144455
:100B5800F8D100234361037038BD00BF9C04002016
:100B68002DE9F8434B7880460C4602F0040602F063
:100B7800FB07D3B1DFB12E4BD4F804901D89B7BB66
:100B880001236370AD08A761E76104F120034A46B9
:100B9800211D04F1280023F8025B984241F8042B38
:100BA8002A44F8D10023636101E0002FE3D0FF233A
:100BB800A370002E18BF0226A3191B7D032B03D197
:100BC800022F1CBF0136F6B2A31901221A7506F1CD
:100BD8000C0204EB8606002324F812307268A37016
:100BE800C8F80020A8F804304046BDE8F883002182
:100BF80014226170A01806F01FFAB5F5FF7F0FD216
:100C08006B08ED1AADB209EB0502C4F8049025840F
:100C1800A2606384C4F80C90A5842261E384C6E7CB
:100C2800B5F5EE6F4FF0FF03EBD940F27265EAE7D6
:100C38009C040020134B012200214FF0FF309A60E2
:100C4800C3F80012C3F80803C3F80015C3F8042555
:100C58009A60C3F80803C3F80015C3F804250A49C5
:100C68000A4A03F580334FF40040C3F80825C1F859
:100C78008000BFF34F8FBFF36F8FC1F88001C3F8B7
:100C88000825704700F0004000E100E00000F63F52
:100C9800014B1876704700BFA80400202DE9F041E9
:100CA80004460D46164690F8F83003F0FF071BB1CE
:100CB8000C273846BDE8F0810146454804F0A6FCFB
:100CC80020288046F4D05822394604F1D00006F096
:100CD800B3F984F8D080C4F8D450FF2384F8F830EE
:100CE80035B101F047F800F00700013085F8E4015C
:100CF80002234FF00008A4F8083184F8008107F0B7
:100D0800B7FE00F19E05204607F00AFDADB2014688
:100D180070B307F081FA00F5CD6189B2304607F06B
:100D28009DFE3044C4F8040107F0C2FE281841F1C2
:100D38000001C4E94401012084F8D800A4F8268001
:100D480007F0ACFDDB3E361AC4F8DC604FF0FF322A
:100D58006FF00043C4E9462394F8D00004F580718D
:100D680004F0A0FD48BB40F2C1113020FFF718FA8B
:100D7800204607F0F9FBDFF85C80DB30C4F804019B
:100D8800B8F8080048B1E08C38B100F0F3FFB8F8C3
:100D98000830B0FBF3F202FB1300054407F088FEAD
:100DA8002D1841F10001C4E94451002ECED0751927
:100DB80041F10001C4E94651CEE7D4E944230021BA
:100DC800C4E93A23C4E93C23204607F0C6FC70E78F
:100DD8001B7A000064050020F0B5002385B0CDE93A
:100DE800003301238DF806306846FFF7D7FD70B150
:100DF8001B4E0123B3720027CDE9027702A8FFF743
:100E0800CDFD0546A8B10023B37205B0F0BD00982A
:100E180006F0B8FEE8E790F80B0205F0E1FA94F85E
:100E28000B0284F8F45104F01DFC202384F80B32E3
:100E3800E2E7029B002BE1D093F80B22202ADDD0B9
:100E480018884FF6FF739842DDD02946FFF76CFDEE
:100E580004460028DFD140F22B113020FFF7A0F91B
:100E680064050020054B00220121DA7219709A727C
:100E780042F210721A81FFF7AFBF00BF640500206D
:100E8800014BD872704700BF64050020014B1881E0
:100E9800704700BF64050020F0B5070CA7F5AA420B
:100EA800144B543A012A03EA90231FD927F400402F
:100EB80042F6AA22801A18BF0120002216211646DF
:100EC8001F2487EA060562EA0505013510D0DD030F
:100ED800ADB245EA5606E503ADB2013945EA52021C
:100EE8004FEA53034FEA5404EBD1F0BD0020E4E786
:100EF8000020FAE7E0FF3F0010B501210020FFF7CE
:100F080013FD044670B90121FFF7D0FC044620B94F
:100F180040F23D313920FFF743F9034B93F90410B0
:100F280007F0E6FA204610BD7405002008B507F062
:100F380083F900F03DFC00F0D7FA07F04BFA00F017
:100F48009FFD00F09FFF00F0B3FD084B1B224FF4FC
:100F5800A4711A805980064B06499A8000221960AC
:100F6800DA825A821A835A7408BD00BF74050020B9
:100F78009C09002003021B00044B41F64C52C3E9B4
:100F880002221B221A74FFF7D1BF00BF9C09002060
:100F98002DE9FF41344DAB68044640F8303F06F078
:100FA80028FE064600F090FA2B7C84F838302F4B48
:100FB800668710F0200F1B681DBFAA886988A4F8EF
:100FC8005A101B2208BFA4F85A20A4F85C201BB1B1
:100FD80094F96C1020889847AE7CEF7CB5F81480A3
:100FE80041F64C53A36116B900F074FA064677BB74
:100FF80000F070FA074666B358B303A920468DF887
:101008000C608DF80D70ADF80E8007F055F9AB88BF
:101018006A886978019103332978009103329BB279
:1010280092B204F1140104F11000FFF7EFFC2369F8
:1010380013B940F2CE5114E0636913B940F2CF51AD
:101048000FE0002004B0BDE8F0810920FAE7002E87
:10105800D3D120880021FFF77DFC0028F5D040F28D
:10106800B9513920FFF79CF89C090020480000205E
:10107800F7B505460E4607F072FA002873D02846E1
:1010880007F04EFB40B1B6F80130013B7F2B03D986
:101098001224204603B0F0BD284607F045FB08B9E6
:1010A8000C24F6E7284606F0EFFD0028F8D128467C
:1010B80007F00FFA04460028F2D1284601F04AFA50
:1010C8000028E5D0B6F80170F17842F2107328468E
:1010D8005F4307F012FB284607F01AFB014658B990
:1010E8003A462846FFF7DAFD04460028D1D041F6F3
:1010F80083113920FFF754F821460DF10600FFF758
:101108009DFB064668B3214600F046FCBDF8063054
:1011180033802846314607F011FB284607F00AFBC2
:1011280098B9284607F008FB01463046FFF730FF1C
:1011380004460028ADD13A4631462846FFF7AEFDB1
:10114800044620B141F6A611D3E70121EDE7074B8C
:101158009B68002B9DD0024606F59571304698474E
:1011680097E70D2495E7422493E700BF7405002014
:10117800034B5A8802801B7883700020704700BF99
:101188009C090020F0B50778EF2F85B004460D467E
:1011980003D91225284605B0F0BDB0F80130ADF8E6
:1011A8000C309DF90C209DF80C30002AF1DB9DF8DD
:1011B8000D209107EDD1DA063FD49E0603F0030215
:1011C80038D5002AE5D11807E3D46378190711D474
:1011D8002179E278E07942EA0122617942EA014222
:1011E800A17941EA0021207A41EA00418A42D0D817
:1011F8001F2ACED9627A013A062ACAD8A27A032AC5
:10120800C7D813F0040102D1023A012A03D8E27ABE
:10121800012ABED811B9A27C032ABAD813F010014A
:10122800227D19D0012AB4D1227E012AB1D8B1B9C0
:101238001125AFE7032AC6D1ABE713F0600FA8D199
:1012480003F00F0203F00703052BBED0931E012BFA
:10125800BBD9002A9DD1B8E7022AE5D199E7DA0778
:101268001FD46378227D03F0180108291ED1022AB1
:10127800DED11B0709D4E279A37943EA0223227A53
:1012880043EA0243B3F5804FD2D8BFB201213846B2
:10129800FFF74AFB064678B106F0F6FCB8B10C2514
:1012A80078E700F0E1F80028DBD1C1E7022AE0D0B6
:1012B800A27E002ADDD0BBE701213846FFF7F6FA07
:1012C800064650B3164B93F9041007F011F930464F
:1012D80007F01BFA21462870E074304607F060F9E1
:1012E800637E0546002B3FF455AF00287FF452AFCC
:1012F800316B02466846FFF733FC306B2A46012102
:1013080006F0B1FA316B68460422FFF729FC306B0E
:101318002A46294606F0A7FA3CE707253AE700BF20
:101328007405002070B50579042D8AB0034658D895
:101338004488B4F5804F54D82B48465D2844002192
:101348004279857AC07BADF8041042F0100242EA77
:10135800460242EA850242EAC00202F01F028DF804
:101368000420BDF80420ADF80D201A888DF80F2050
:101378008DF81240120A240A8DF811108DF81410F5
:101388008DF810208DF813405A7B8DF815205A7966
:101398008DF816209A79D3F807008DF81720B3F83E
:1013A8000B209B7B8DF81E307F238DF81F30012387
:1013B8008DF80C1006908DF82110ADF81C208DF8D2
:1013C80020308DF8223003A88DF823108DF82410D2
:1013D8008DF825108DF8261001A9FFF7D3FE0AB065
:1013E80070BD1220FBE700BF8C2D01000278034678
:1013F80072B1427862B142881A2A09D982881A2AB7
:1014080006D9044A006810609B88938000207047C2
:10141800122070479C090020024B02689A60002045
:10142800704700BF9C09002008B501F08BF8FFF752
:1014380019FDBDE80840014801F06EB8800500209C
:1014480010B5064C064904F5027006F0C7FE04F50F
:1014580003700449BDE8104006F0C0BE80050020B6
:101468004C00002054000020014B93F80201704703
:101478008005002010B5074C00F0FEFBD4F80802E8
:1014880006F0A4FEFFF778FD00F08CFC012384F839
:10149800143210BD80050020014B93F814027047E8
:1014A8008005002010B5074CD4F80C0206F08EFE1B
:1014B800D4F8100206F08AFEFFF738FD002384F8FE
:1014C800143210BD80050020014BD3E9000170479C
:1014D80010000020034B1868C0F30020400040F0C3
:1014E800010070471000002008B507F0BFFA084A4D
:1014F800002332F82310814205D302EB83039B7843
:10150800044A137008BD01330C2BF2D10023F7E70E
:10151800A02D010095070020054B9A8C824201BF3F
:10152800002283F822204FF6FF729A84704700BF8A
:101538009607002050B90A4A1346012003F8010B08
:101548000868C2F801008A889A807047012805D186
:10155800034B0A689A608A88D8719A81704700BFDD
:10156800C007002048B90A4B187880B1D3F8012089
:10157800B3F805300A608B807047012806D1044B08
:10158800D87920B19A680A609B89F4E700207047EF
:10159800C007002020B9054B187800F001007047FB
:1015A80001280ABF014B0020D879F6E7C0070020C0
:1015B800F7B500228B888DF80600ADF8043008686E
:1015C8000C4B8DF80720019D1C78014603F5AC7380
:1015D800D0B2844201D8082009E0D3E90076AE42AF
:1015E80008BF8F4203F1080302F10102F0D103B0F2
:1015F800F0BD00BFD007002030B5094B01465C782C
:10160800002203F58173D0B2844201D8082005E096
:1016180013F8015B8D4202F10102F4D130BD00BF25
:10162800D0070020F0B5254D95F8984189B022469D
:1016380005F29911684605F087FC2146684606F0D0
:101648001AFE0446B8B300EB4001C9B202A8FEF77F
:10165800F1FE601E95F8A161C0B2012495F89821A9
:1016680005E0731CB3FBF2F102FB1133DEB206F1A5
:1016780020030DEB030111F8203C002BF1D100EB06
:10168800400220326A4406EB46032B4412F8187CC9
:1016980083F8A27112F8177C12F8162C83F8A3713C
:1016A80083F8A42101F8204C0138AB19C0B2FF28F7
:1016B80083F89941D2D109B0F0BD00BFD00700200E
:1016C80070B5064688B00C46002A4FD02A4A92F8D0
:1016D800A131D01890F8991121B94FF480712820C0
:1016E800FEF75EFD03EB43011144013391F8A2516B
:1016F800E57091F8A35191F8A41161710021257149
:1017080080F8991192F89811B3FBF1F001FB1033AE
:1017180082F8A13192F8C23123B9184902F5DD7077
:1017280006F07AFE657905F03F0545F040056571DC
:101738000D220021684605F07FFCE3788DF80F3014
:1017480023798DF80E3004AA0423694630468DF8B3
:101758000D5005F09BF99DF81F3023709DF81E3041
:1017680063709DF81D30A37008B070BD0321601828
:10177800FEF760FED6E700BFD00700202D16000058
:10178800044B5A78824286BF1B1893F84A010020FE
:10179800704700BFD0070020044B5A78824286BFAA
:1017A8001B1893F842010020704700BFD0070020A3
:1017B800064B00224FF461711A8083F8C32183F825
:1017C800C421A3F8C61183F8C2217047D0070020AE
:1017D800014B83F8C4017047D0070020014BB3F8D0
:1017E800C6017047D007002030B50A4B5C788442A8
:1017F8000ED9184490F802012B3003EBC004A579E8
:101808000D7053F830001060A3889380012030BD1C
:101818000020FCE7D00700200246074810B590F8E2
:10182800C34124B1417821B1023001F039F8204692
:1018380010BD0C46FBE700BFD00700202DE9F74F8D
:101848002F4C9A46637883428046894656D9231896
:1018580093F8425185F00105F9B193F84A31E3B99B
:1018680045F002070135BAF1000F18D1FA070AD579
:10187800062101FB084104EB0810524601F5857169
:101888008230FFF71DFFBB0734D504EB0810524622
:1018980049460230FFF714FF2CE02F46E3E794F89F
:1018A800A1614FF0010B002DE0D0A319019393F82B
:1018B800991199B90092DAB100F044FA06EB4601A1
:1018C8002144019B81F8A2014FEA102C009A81F86B
:1018D800A3C1000C81F8A40183F899B194F8983158
:1018E8000136B6FBF3F103FB1166F6B2013DDAE708
:1018F80047F00407384603B0BDE8F08F0027F9E742
:10190800D0070020074B5A78824209D91A1892F852
:1019180042212AB9062202FB003000F58570704783
:1019280000207047D0070020064B5A78824281BFBA
:101938001B1893F83A01B0FA80F0400998BF0020CC
:10194800704700BFD007002030B50024A0F84240FF
:10195800B0F8464042F210754C43B4FBF2F4A0F8DC
:101968004640541E05FB0343B3FBF2F3A0F8443092
:10197800084BB3FBF2F30133A0F84A30838F05FB21
:101988000344436BB4FBF2F459438463B1FBF2F2B2
:10199800426330BD005A620270B504460D4649BB29
:1019A8004FF4207205F048FB012384F896306FF05D
:1019B800360384F8E330042384F8E4306FF03B0303
:1019C80084F8E5306F2384F8E6306FF03F0384F83D
:1019D800E7302B2384F8E230FE2384F81E317F237E
:1019E80084F88D30202384F8E85084F8E95084F88E
:1019F8000B3270BD012922D10023A0F8CC3180F828
:101A0800C331154B82691344B3FBF2F3C0F8B83005
:101A180040F6B833A0F8BC301146438C8030FFF74D
:101A280093FF05F04BF930B1E069FFF735FA10B9CB
:101A380084F8AF51DDE7002384F8AF31D9E70229F4
:101A4800D7D1B0F86232D0F85C228169BDE8704025
:101A58008030FFF779BF00BF7FC3C901074B93F9F7
:101A680000301844142804DC10F17F0F03DB40B267
:101A78007047142070476FF07E0070479809002067
:101A8800024B00221A705A70704700BF9809002054
:101A9800054BFF221A70054A01681160017911711E
:101AA80000221A70704700BF9A0900201800002011
:101AB80007B5064B186800901B798DF80430684606
:101AC800FFF7E6FF03B05DF804FB00BF2844010000
:101AD80083230B70014B1B78CB707047B80900202B
:101AE8002DE9F74306460D464FF0050800274FF04D
:101AF80003092B693BB11B7A2BB12C699CB90020D7
:101B080003B0BDE8F0836C68237A012BF7D0EFF3BC
:101B1800108372B66A6812686A6003B962B6237A7B
:101B2800002BE6D02C61237ADBB284F80880013BD5
:101B38000B2B66D8DFE803F0620620345F653D654D
:101B480065656552636823B94FF4EE711020FEF79E
:101B580027FB2046314698470420EFF3108372B6DE
:101B6800227A052AD1B201D0002953D127722F61D8
:101B7800002B4BD162B649E0636813B940F2E51116
:101B8800E4E73146204698470346C3F30723012B71
:101B9800ADF80400C0B237D0022BDED12F6135E09A
:101BA800636813B940F2EF11D0E720469847002048
:101BB800D3E763680BB9DB21C8E70B2232701988B9
:101BC800A6F80310012200241869B2707271B4716A
:101BD800214605F081FD2C61042091E7606810B969
:101BE80040F21A21B2E70E4B31461B689847002392
:101BF8002B61022084E740F22321A7E740F2262147
:101C0800A4E740F22921A1E784F8089000283FF4CE
:101C180070AF75E7002B7FF46CAF62B669E700BF61
:101C28005C00002070B5134C1426231D3246002199
:101C3800184605F001FA03460125257400210433EE
:101C4800324604F11800C4E9013305F0F5F984F8C7
:101C5800245004F11C03C4E906330023E362236320
:101C680084F83430C4F83530C4F8393084F83D305D
:101C780070BD00BFB809002010B5084C2378FF2BB1
:101C880004D04FF4B7711020FEF78AFA04F046FF2B
:101C98002070BDE81040FFF7C5BF00BF1D00002041
:101CA80010B5034C207804F055FFFF23237010BDB6
:101CB8001D000020014B187804F05CBF1D000020B7
:101CC80038B50B4D05F118010446FFF709FF70B947
:101CD800AB681B7A0C2B04D1064BDA7D0AB11B8B3F
:101CE8002BB120460449BDE83840FFF7F9BE38BD9E
:101CF800B80900209C090020BC09002010B5134633
:101D0800027A22B140F2C9211020FEF749FA0A46A8
:101D1800BDE810400146014806F05EBBBC09002042
:101D28000346064890F83E203AB190F83D2022B983
:101D380000F8353B024906F06CBB7047B809002033
:101D4800D91A0000094AD2E90003434083EAB011D6
:101D580081EA43214FEAF3435360054B116058432E
:101D68004FEAF06000EB8000704700BFF8090020E0
:101D7800BB79379E094AD2E90003434083EAB01190
:101D880081EA43214FEAF3435360054B11605843FE
:101D98004FEAF06000EB8000704700BF2000002091
:101DA800BB79379E10B50A4C09480821FEF742FB5B
:101DB800D4E900231343F7D0064CFFF7DBFF20607C
:101DC800FFF7D8FF236860600343F6D010BD00BF5B
:101DD80020000020F8090020F0B5204E0546307894
:101DE8000024147080B1431E7768DBB2181B0128E9
:101DF8000BDC07EBC40057F834604068884208BF22
:101E0800AE4212D114700120F0BD1819461007EB2C
:101E1800C60E57F836C0DEF80460AC45C0F347007C
:101E28008E412CBF03460446E0E7B54271EB000043
:101E380002D214700020E7E707EBC30057F83340DD
:101E48004068884208BFAC4201D11370DBE7A54265
:101E5800814128BF01331370ECE700BF200A00203E
:101E680010F0070208B503D063214820FEF798F95F
:101E780018B1034B197258601A70C80008BD00BF2A
:101E8800200A0020014B00221A707047200A002007
:101E9800014B187A704700BF200A00202DE9D34370
:101EA80006F0C7FA0DF1070207460E46FFF794FF42
:101EB80098B9114C2278237A93420ED06168134660
:101EC8006FF0604E9DF80700984209D301EBC003FC
:101ED800C3E9007601322270012002B0BDE8D08348
:101EE80003EB0E0001EBC000D0E90089013BC0E91B
:101EF8000289DBB2E6E700BF200A002037B506F00A
:101F080098FA0DF10702FFF767FF0446A0B10C4AE3
:101F18009DF8070013785568013BDBB213701A1A55
:101F2800D2B2411CD200834238BF002205EBC10166
:101F380005EBC00004F0C2FF204603B030BD00BF6F
:101F4800200A002038B5074D044600F151012868E1
:101F580006F0B6F994F850102868BDE8384006F045
:101F6800BDB900BF400A0020F8B504460E46658892
:101F7800407F15F00401134618BF04F15F01324693
:101F8800FFF75CFCC20705460BD5012384F85030E7
:101F9800607FFFF7B7FC0368C4F851308388A4F862
:101FA8005530AB070CD5094E0127306884F85E70B0
:101FB80004F15F0106F08BF93068394606F097F9AD
:101FC80085F00400C0F38000F8BD00BF400A00207F
:101FD80038B5C38D0E4D0133C385AB7C04462BB198
:101FE80001F0C8F900F08EFC0023AB7400232B71BC
:101FF80094F879302BB101212046BDE8384005F02E
:1020080004BE637C13B1E28D9A42F4D20021F3E757
:10201800400A002010B5094C2379012B02D02379FE
:10202800022B05D1A37C1BB101F0A4F900F06AFCD6
:10203800E069BDE81040FFF7CBBF00BF400A0020B1
:1020480070B5294C2379012B07D02379022B04D0B2
:1020580040F63C412D20FEF7A3F8A0B90125A37C4A
:102068001BB101F087F900F04DFC002D3AD0E06972
:1020780005F0ADFD002830D001F09AF8236ABDE8DC
:1020880070409B6818472168E26911F8095B02F102
:102098005103E80992F8502006F0CFF80028DDD067
:1020A8002068002106F048F90028D7D02379E06994
:1020B800012B05D02379022B02D040F61541C9E740
:1020C8002379226A03F180435269013B05F00F012D
:1020D80052F8233098470546C1E7E069BDE87040EB
:1020E800FFF776BF70BD00BF400A0020074A0346CD
:1020F800D06903B909B9FFF76BBF1379126A03F105
:1021080080431269033B52F823301847400A0020E5
:102118002DE9F043032985B0054690467BD090F819
:1021280078300529DBB202D14288D60760D5002B6A
:102138005ED10127DFF8E89099F81260B6B106F091
:10214800B1F8082888F8000014D002AA0DF1070198
:10215800FFF74AFB20B940F69F612D20FEF720F8D3
:102168009DF8070002A906F070F9064698F80030B5
:10217800082B08D1D9F8001011F8030BC0F3801010
:1021880006F063F90646D9F8001095F8572011F8BB
:10219800030B05F15803C0F3801006F04EF8D9F888
:1021A8000010044611F8030BC0F3801006F070F815
:1021B8008146FFF7B9FB014640B1B9F1080F1BD0C2
:1021C8004846FFF7DDFA80F00101C9B298F800002F
:1021D800082815D094B96B7F1C1A604260416B883F
:1021E8005A0706D421B996B9EB7C93B1BB4210D0FB
:1021F800002005B0BDE8F0830021E7E70120EEE705
:1022080014B181F00104E4B204F00100E7E73046BC
:10221800EFE70120EDE743889B07E9D5022789E727
:10222800400A0020032973B5044604D0052952D07A
:10223800012002B070BD08230DF107028DF80730A8
:10224800FFF766FF0028F3D0237C284D03B39DF8E1
:10225800070094F8C630DBB9237884F8C73008281B
:1022680004F1C90228D004F1C801FFF7BDFA20B96A
:1022780040F615712D20FDF793FF94F8C83043F010
:10228800020384F8C8301A4904F1BE0006F0C1F808
:102298002B68062204265A701E702046FFF752FE4D
:1022A80094F84020E16B286806F037F828682E710A
:1022B80001F01EF80020BCE72868034613F8031B4A
:1022C800C1F3801184F8C810D0F80310C4F8C910FD
:1022D8009B889380D7E7074B1B6823B1984780F00A
:1022E8000100C0B2A5E71846A3E700BF400A0020D6
:1022F8006784000060000020F8B504460F4619B353
:1023080000F12805284606F0A2FAA0B963881A0742
:102318002ED5284606F0B2FA0646284606F097FA61
:10232800301AC0B206F0BAFA444A93680344284601
:10233800936006F068FA284606F06AFA00F0CCFEC8
:102348002179252000F0D4FD3C4D94F85E202868C2
:102358000023037043706388103B0D2B5ED8DFE8C1
:1023680003F0595D550C5D405D5D5D5D5D5D5D40F3
:102378002046BDE8F840FFF72BBE06234370202314
:1023880003702046FFF7DEFD638823F008039BB245
:10239800152B05D094F83820616B286805F0AEFF3E
:1023A800286800F0A5FF032321792B71002000F095
:1023B80099FE064607B9E86063881B0704D506F04E
:1023C8006AFA0644C4F8E0606388103B0D2B30D8E5
:1023D800DFE803F0322F29292F292F2F2F2F2F2F16
:1023E8002F290C2343702123037042B104F15F01AC
:1023F80005F06DFF0121286805F079FFC1E704F1B8
:10240800580105F064FF94F85710F4E706230370A9
:102418004370B6E7022303700623F9E740F226610A
:102428002D20FDF7BDFE21790120BDE8F84000F020
:10243800AFBF40F6AF41F3E7F8BD00BF400A002048
:1024480038B54388102B044604D1BDE83840012133
:10245800FFF752BF0B4DAB7C23B100F039FA402097
:1024680000F07CFF286800F043FF608810F004004B
:1024780002D1217900F08CFF002000F04BFF0123EE
:102488002B7138BD400A0020024B0121D869FFF7A3
:1024980033BF00BF400A002010B5134CA37C1BB10A
:1024A80000F068FF00F02EFAE06905F090FB70B1CB
:1024B8002379E069012B0FD12379226A03F1804344
:1024C800D268013BBDE8104052F823301847E06954
:1024D800BDE81040FFF77CBD2379022BECD040F615
:1024E80043312D20FDF75CFE400A002010B5094855
:1024F800037903F0FF0453B918222146043004F08D
:102508009BFD00F037FF00F0FDF9204610BD0C24BC
:10251800FBE700BF400A002010B5094C00232371D7
:102528002060FFF7E3FF20B140F2F6212D20FDF7F0
:1025380037FE236A13B940F2F921F7E710BD00BF4F
:10254800400A0020014B024A1A627047400A0020E4
:102558001C2800002DE9F041067DB31EDBB2012BDB
:1025680004468CBF4FF000084FF001087EB3B71E39
:1025780018BF0127012B36D800F1580190F85700F1
:1025880005F086FE082805462DD0FFF705F958BB4B
:10259800657784F81C8084F85070FFF71FF90546AA
:1025A80006F086FA174BA5FB03351B1845EB01050A
:1025B8000022C4E9123584F85E2011462046FFF750
:1025C800D3FC70B940F293412D20FDF7E9FD374661
:1025D800082504F151010020FEF7C4FF0028D7D1D7
:1025E8000020BDE8F0810825022EF2D0E37E002B02
:1025F800F6D0D4F81530C4F85130B4F81930A4F82E
:102608005530C5E740420F00F0B5464E327985B0E7
:10261800044602F0FF0312B90278FF2A04D140F6FB
:10262800A9112D20FDF7BCFD3382B3607371B3711E
:1026380080F879303C4B00933C4B01933C4B029320
:10264800336A68465B68039300F04AFE00F07CFC3E
:1026580000F090FE00F056F9364800F017FD04F13E
:102668002805354800F036FE284606F0CCF82846FE
:1026780006F0CEF800F030FD2179252000F038FC76
:1026880094F9120000F0FCFC04F13401206B05F011
:1026980007F904F13C010746206B05F028F90546C7
:1026A80017B194F82430C3B90DB194F82550237F9D
:1026B80013B963885B0709D5D4E912126FF0004398
:1026C8009A4208BFB1F1FF3F09D185B9306803309C
:1026D800FFF7A2F8B07405B0F0BD0125E7E706F0F2
:1026E800E7F9D4E91223904271EB0303EDD30122F9
:1026F80005EA02012046FFF737FC68B1FFF76EF8DC
:10270800054606F0D5F90D4BA5FB03351B1845EB1F
:102718000105C4E91235D9E7002DD7D040F6DE11FE
:102728007FE700BF400A0020A124000049200000E4
:10273800F5200000D6BE898E5555550040420F0041
:10274800F7B50446FFF760FF00212046FFF7D4FDE8
:1027580004F1680005F069FD236F0BB101221A60CE
:102768006388DB0721D50023114E256ACDE90033A4
:10277800FF23F37405F10A076846FEF70FF9A0B9BD
:10278800009CA542F8D06A7A607A3B4604F10A01B7
:1027980005F053FD0028EFD0A378F374D4F80300B4
:1027A8007061044BB4F807209A8003B0F0BD00BFF5
:1027B800400A0020540A0020024BD8611B6A1B689B
:1027C800184700BF400A002043881B0710B504467D
:1027D80011D5036A0A493C2280F883201B88A0F897
:1027E8008430FF2380F8A1304FF6FF73A0F8A230A1
:1027F8007A3005F00EFEFF2384F8793010BD00BF53
:102808007F8400002D22000049240000D7840000A6
:10281800D1840000492700001D20000091240000F9
:1028280018280000102800000C2800000138022891
:1028380008B503D9C3212F20FDF7B2FC13290A4B91
:1028480005D811290CD8102907D0D121F3E715296B
:10285800FBD103EB4003D88801E033F8100008BD32
:1028680003EB40039889FAE70C2E0100064BD3F8D6
:10287800000138B1D3F8040120B1D3F80801B0FA47
:1028880080F04009704700BF00F00040034B002271
:102898001A705A7010229A70704700BF7C0A002084
:1028A80070B50646022014460D4600F0B9F8064BEE
:1028B80001221A70054B033CC3F81045C3F808659C
:1028C800C3F8045570BD00BF7C0A002000F000402A
:1028D80008B5022000F0A4F8084B01221A70084B32
:1028E8000022C3F80021C3F80421C3F8082103F526
:1028F80080334FF40002C3F8042508BD7C0A002089
:1029080000F000400D4A08B513787BB10C4B4FF42A
:102918000001C3F80815FFF7A9FF60B10123537040
:10292800084BD3F80034937000231370BDE80840B7
:10293800002000F075B850701023F4E77C0A0020DE
:1029480000F0014000F000400A4B1A786AB10A4BC7
:10295800D3F800215AB1D3F8040120B1D3F8080103
:10296800B0FA80F04009C0B270475878704702202A
:10297800704700BF7C0A002000F0004008B5074BF4
:102988001A783AB1FFF772FF30B1054BD3F800045B
:10299800C0B208BD9878FCE71020FAE77C0A00204E
:1029A80000F00040024B00221A705A709A7070476B
:1029B8007F0A0020084B1A784AB10849084AC1F82A
:1029C80008250022C1F89825C1F89C251A70002214
:1029D8005A709A70704700BF7F0A002000F00140CB
:1029E8000000020208B50B4B4FF40042C3F88020E8
:1029F800BFF34F8FBFF36F8F074B0022C3F800253B
:102A0800C3F80025FFF7D6FF044B4FF40002C3F8C4
:102A1800082508BD00E100E000F0004000F001409A
:102A280038B5144C0023C4F80035C4F80035054601
:102A3800FFF7C0FF104B4FF40002012DC3F8082523
:102A480003D0022D08D085B938BD0223C4F800355B
:102A58000A4BC4F81435F7E70321C4F800150749F1
:102A6800C4F81415C3F80425EEE782213D20FDF7CC
:102A780097FB00BF00F0004000F00140840A0020EE
:102A8800024B00221A809A701A717047900B00202E
:102A980038B5144D95F841200346084622B940F64A
:102AA80051013E20FDF77CFB6BB9012AEC6B95F8D0
:102AB800401005D100F0E2FD2044AB6AC01A38BDD1
:102AC80005F037FFF8E7012B0AD1012AEC6B95F8DE
:102AD800401002D100F0C4FDEEE705F035FFEBE74A
:102AE8000020EAE7900B002008B5094B012883F87D
:102AF8002000084B06D0022808D040F677513E2027
:102B0800FDF74EFB0322C3F8102508BD0422FAE79F
:102B1800900B00200010004008B5144B93F84D307E
:102B2800D90721D59A0711D5114BD3F8002242F0C5
:102B38000102C3F80022D3F8503503F0F603022B44
:102B480012D140F20F613E20FDF72AFB5B070BD53F
:102B5800084B094AC3F8AC25A3F5B833D3F840317C
:102B680013B140F21661EEE708BD00BF900B0020DC
:102B78000010004000F001400810004007B50B4A63
:102B880001AB92F9212000F0BDFD9DF9040000F091
:102B98005FFD9DF8050000F029FE20B14FF4BC61EF
:102BA8003E20FDF7FDFA03B05DF804FB900B002012
:102BB80008B503460F4863B92831C1600E4900F0D3
:102BC800FDFD0130012814D940F237713E20FDF790
:102BD800E7FA012B0AD12931C160074900F0F4FD59
:102BE8000130012805D940F24171EFE740F2457103
:102BF800ECE708BD280000202C2E010008B50C4B7E
:102C08009B78012B09D100F0E5FD013001280ED990
:102C180040F6A2013E20FDF7C3FA022B07D100F0CF
:102C2800DFFD0130012802D940F6A801F2E708BD0E
:102C3800900B0020044B03441A7E044BC3F808256C
:102C4800C3F85405704700BF2C2E01000010004047
:102C580038B50D460446FFF747FF2846FFF7EAFF59
:102C680029462046FFF78AFF04F028F890B10A4960
:102C78004FF08053D1F88825D3F82033022C0CBFAD
:102C8800C3F30663C3F3062322F4FE4242EA032396
:102C9800C1F8883538BD00BF0010004010B50C469B
:102CA800FFF722FF2046FFF7C5FF0E4B5A78012A8F
:102CB80003D1D8782146FFF761FF0B4CD4F80032D6
:102CC80043F48873C4F8003203F0F8FF40B904F005
:102CD80005F828B9D4F8683543F4C023C4F8683532
:102CE80010BD00BF900B002000100040F8B53A4C12
:102CF8000D461646074600284ED1104694F8221075
:102D0800FFF7A6FF22780123A3709A42334B4FEABC
:102D180046061E4430D1B6F840304FF47A7203F5B7
:102D2800FA73B3FBF2F3ED1AA16A2D4A2D4E2E4B1E
:102D38000D44C6F84055C2F8A835636C43F4002327
:102D480063644FF40023C2F804352378002B3AD18A
:102D580094F84D3043F0020384F84D300124FFF716
:102D6800DBFEF464D6F84C359D4233D93846294603
:102D7800FFF71EFF2046F8BDB6F846304FF47A71CB
:102D880003F5FA73B3FBF1F3ED1A002ACCD1144B17
:102D9800164AC3F8AC25C7E701280FD194F82210CA
:102DA8001046FFF77BFF0223A3702378012BBBD0CB
:102DB800293D002BB8D10A4B0D4AEAE740F2DA71F7
:102DC8003E20FDF7EDF9012BC8D194F84D3043F0C2
:102DD8000403C1E70020CEE7900B00202C2E010051
:102DE80000F0014000800040408100400010004099
:102DF8000410004010B560220021194804F01CF9A5
:102E0800FFF73EFE03F010FF60B124221548FF21B2
:102E180004F012F94FF080430022C3F8082EC3F8DB
:102E2800102E10BD03F00AFF0028EED103F010FFAA
:102E38000028EAD103F02CFF08B14022E6E703F0AE
:102E48001DFF04460028F8D106483822FF2104F067
:102E5800F3F84FF08043C3F8084EC3F8104EE0E78C
:102E6800900B0020000E0040024B0344187E00F532
:102E7800166070472C2E0100094A936A906B92F8ED
:102E88004010C01A074B03EB8103DA6C9B6D801A64
:102E980003F2F3134FF47A72B3FBF2F3C01A7047DC
:102EA800900B00202C2E010008B50F4A92F8401014
:102EB800012906D0022914D040F2AA213E20FDF7AC
:102EC8006FF940F6B830936B926A9B1A074A02EB87
:102ED8008102D26C9B1A4FF47A72B0FBF2F018445C
:102EE80008BD4FF4FA60EEE7900B00202C2E01008D
:102EF80008B5134B012983F84C0006D002291BD0D2
:102F08004FF43A713E20FDF74BF900230D4A43F484
:102F1800801340F0007043F4847340F44030C2F8EA
:102F28001435C2F81805D2F8503503F0F703032B0F
:102F380005D140F2FF21E5E74FF08073E6E708BDD1
:102F4800900B002000100040464B022270B5C3F8D9
:102F58008020BFF34F8FBFF36F8F434C0023C4F81B
:102F6800FC3F0123C4F8FC3F03F0B8FE28B1D4F8B5
:102F78003C3743F48063C4F83C3703F073FE58B120
:102F8800D4F83C3723F0004323F0FF0343F0004319
:102F980043F09603C4F83C3703F090FE324C38B146
:102FA800D4F8403723F47F4343F4B053C4F8403790
:102FB8002E4BC4F8783700F029FC38B14FF0805315
:102FC800D3F83033591C18BFC4F84C374FF01023CE
:102FD800254C1B6E5A1C09D0D4F88C251B0403F40D
:102FE8007F0322F47F021343C4F88C3540F20313A5
:102FF800C4F834351E4D40F25B63C4F838350123FC
:10300800C4F8303585F820300323C4F8103540F271
:103018000123C4F850360226164BC4F80062187C07
:1030280000F0FAFB144B154AC3F804250023A5F851
:103038004030EB6385F84D3002F02EFBC5E90C01FA
:1030480002F038FB074BA8621022C3F88061C4F86D
:1030580004231E602B6E03B19847BDE8704000F052
:10306800A1BB00BF00E100E0001000402C00008977
:10307800900B00202800002000F001400000020C06
:10308800014B83F821007047900B0020034B020E80
:103098000002C3F82425C3F81C057047001000403F
:1030A80038B5044600680A4DFFF7F0FF094B62681F
:1030B800C3F83C25237A85F82230617AA07AFFF795
:1030C80017FF607AFFF710FDE37A85F8213038BDE5
:1030D800900B002000100040014B83F8220070473D
:1030E800900B0020F8B5244E96F84D30DA070546C7
:1030F8000F4604D440F26A713E20FDF751F81F4C88
:10310800D4F8002243F0020342F00102C4F800227E
:1031180086F84D3000BB96F822103846FFF798FD28
:10312800174A0123B370D3642360154BD3F84C4579
:1031380028462146FFF73CFDB06A241ACDB911494B
:1031480001EB47074FF47A71B7F8460000F5FA70BB
:10315800B0FBF1F02044F8BD0128E6D196F8221022
:103168003846FFF79BFD0223B370054BDD646560AD
:10317800DBE704F12900EEE7900B00200010004087
:10318800008000402C2E010008B5FFF7AFFD58B9AC
:10319800064BC3F84005A3F5E04301221A6102205B
:1031A800BDE80840FEF7BCBD08BD00BF0080004078
:1031B800244B13B510222449D3F80443C3F8082339
:1031C8000222C1F880212149C3F80022002281F897
:1031D8004D201F49C1F8402501F5B8314FF4602052
:1031E800C1F80805D3F85015C9B204F01004D9B1D4
:1031F800FF218DF80710C3F8102101221A619DF8EC
:10320800072012B1D3F810213AB19DF807305BB905
:1032180040F691013E20FCF7C3FF9DF80720013AD4
:10322800D2B28DF80720EAE7FFF7E8FC054900234A
:10323800C1F81031FFF724FC14B11023C1F804338E
:1032480002B010BD0010004000E100E0900B00202B
:103258000080004038B51B4D0024C5F84845C5F826
:103268004445C5F84045C5F84C45FFF7A1FF00F0B7
:103278009FFA154B15495A6C5C6442F0446242F45B
:103288000032C1F80825C3E90E441C76104BC5F876
:1032980048450222C5F84445C5F84045C5F84C459F
:1032A800C5F84841C5F84441C5F84041C5F84C4106
:1032B800C3F88020BFF34F8FBFF36F8FC3F880210F
:1032C80038BD00BF00800040900B002000F0014096
:1032D80000E100E0014BC3F83C05704700100040D6
:1032E80010B50FC8014C84E80F0010BDF40B002086
:1032F800064BC3F80405064B93F84D20986442F03A
:10330800010283F84D20FFF707BC00BF0010004002
:10331800900B002010B50F4C034694F8410094F828
:1033280040100222012822764FF0960094F82020BF
:103338000CD100F0B1F9084AE0610023C2F8443129
:10334800E36BE1690B44C2F8443510BD00F0BEF9E7
:10335800F1E700BF900B002000800040044BC3F849
:103368006005D3F8002242F04002C3F800227047FB
:1033780000100040054BD3F8002222F04002C3F8A9
:1033880000220022C3F86025704700BF00100040EB
:1033980008B50D4B0246D97008460021197082B94C
:1033A80001225A709A78022A0DD193F82210FFF759
:1033B800E5FB064AD2F8003243F48873C2F80032BB
:1033C80001E002225A7008BD900B00200010004056
:1033D8002DE9F843924D934C0123EB64A36AD5F889
:1033E8004C7594F84C90FF1A02F0D0FE0026C4E900
:1033F8001406A765FFF702FC8B4B626CC3F808251F
:103408008A4A6664D2F8003223F48E7323F00103EB
:10341800C2F80032237E84F84D6023B1D5F84431D8
:103428009B1B18BF0123A178012938D1D2F80C3190
:10343800002B0CBF0025082515F00B0F7B4B04D182
:10344800D3F810210AB145F010050022C3F8002175
:10345800C3F80C21C3F81021C3F80421C3F80821CC
:1034680005F01803102B03D1012908BF45F02005EA
:103478006B4B6678D3F84825E263D3F84435A363E9
:1034880094F8203084F8403084F84110EEB9FFF702
:10349800F7FA2676EF0761D5636E98478EE0022922
:1034A80011D1624AD2F80C01D2F8002400280CBFCE
:1034B80000250225D20758BF45F00405002BBBD0D4
:1034C80045F00105B8E70025B6E715F0110F21D141
:1034D8002379B6F1010818BF4FF00108012B2678AF
:1034E8001CD0022B2FD09BBB96214046FFF7D0FA69
:1034F8000146FFF7C5FA012E07D13B378F422AD87C
:10350800474B26700022C3F84021E2784046FFF777
:103518003BFE01E0FFF74CFE0026BBE74448FFF7FF
:10352800BFFD94F8413023B940F261713E20FCF7A9
:1035380037FE012B04D1FFF7B7FC61690144D8E7D6
:10354800FFF79AFCF9E73A48FFF7AAFD6169D0E767
:1035580040F68121EAE7354B1E619BE7A80745D570
:1035680003F0ACFBE8B903F0B9FBD0B92F4BD3F8A3
:103578005034D90115D51A0705D013F0F00F02D031
:1035880013F4706F0DD1294AC3F304410129D2F80D
:10359800542406D1012A04D0C3F34253022B7FF6E8
:1035A8007BAFA36C5B784B4588BF45F0040585F07D
:1035B8000400A36E3146C0F380009847A378022B1D
:1035C80012D1237E83B1022B154A1DD1E36BE16929
:1035D8000B44C2F84435636C43F480036364124BB4
:1035E8004FF48002C3F80425BDE8F88315F0280FCE
:1035F80006D085F02001E36EC1F340113046DCE7C8
:10360800EB06DBD5236F48E7012B02D040F661417A
:103618008CE7E369E16B8B42DBD840F6624185E7D2
:1036280000800040900B002000F001400010004096
:10363800980B0020024B03EB8003D86C704700BF47
:103648002C2E0100014B53F820007047842E0100F6
:10365800024BC0B2C3F80C05704700BF0010004011
:10366800054B33F8113002384FF47A7203F2E7331E
:10367800B3FBF2F3184470479C2E0100054B33F856
:1036880011304FF47A7203F57A73B3FBF2F31844EE
:10369800704700BF9C2E010038B51D460A4B33F811
:1036A800111003EB820305359C6821444FF47A73AB
:1036B80001F6B73103FB00141046B4FBF3F4FFF72F
:1036C800B9FF2C44204438BD9C2E010070B5064635
:1036D80008461546FFF7B6FF094A02EB85029368CC
:1036E8004FF47A7203F6B73302FB06331C1A2846E6
:1036F800B4FBF2F4FFF79EFF0530204470BD00BF15
:103708009C2E01002DE9F74F244C074698460D469C
:10371800164600F0A3F82378BB42814611D163789E
:10372800AB420ED194F90230B3420AD1E378834216
:1037380007D1A388A8F8003094F9060003B0BDE8C3
:10374800F08F781EC0B203280ED8DFF854C00DF1F0
:1037580007031CF800003246294600F085F8824627
:1037680038B13D21752002E040F26B410620FCF79C
:1037780017FD28469DF907B0FFF776FB534602462A
:103788004146584600F038F8B8F80030A071A380D8
:1037980027706570A67084F80390CDE7400000207C
:1037A800B02E0100014B1B685B68184764000020BD
:1037B800014B1B689B68184764000020014B1B687D
:1037C8001B69184764000020014B1B685B69184798
:1037D80064000020014B1B689B69184764000020A7
:1037E800014B1B68DB69184764000020014B1B680C
:1037F800DB6A18476400002010B4034C2468E468AE
:10380800A44610BC604700BF64000020014B187834
:10381800704700BFE010002000220F4938B5044669
:10382800134644FA02F0C007D5B248BF581C02F14B
:10383800010244BFCD54C3B2042AF2D1064DC3F1EC
:103848000402042BD2B24FF0FF0188BF0022E8180F
:1038580003F0F2FB2C7138BDEC100020014B187DF1
:10386800704700BF080C0020042810B511D883B198
:1038780004280CBF10242824A1420AD2064C54F86C
:10388800200018B141568A42A8BF0A461A70002083
:1038980010BD6FF01500FBE7080C002030B503469B
:1038A800114890F91C209A4219DD90F924209A4277
:1038B80017DA9A1A846AA05C0C4A15569D420DD0F4
:1038C8000E32002918BF01309442C0B206D129B186
:1038D800013BDBB2012B01D80130C0B230BD0D2055
:1038E800FCE70020FAE700BF080C0020B42E010016
:1038F80008B5054B93F91C30984203DAFFF7CEFF61
:10390800024B1B56184608BD080C0020B42E0100B7
:1039180010B51C4C94F82C3073B9012384F82C3062
:1039280003F096F948B1184BA362D823236284F8B0
:1039380024300823A361237710BD03F09FF90028E2
:10394800F1D103F0A5F90028EDD103F063F938B1FE
:103958000E4BA362D823236284F824300423E9E7BA
:1039680003F062F90028F3D103F068F90028EFD1D9
:1039780003F078F90028EBD14FF4DF71742002F0DE
:103988000FFF00BF080C0020EF2E0100C22E01001F
:103998004FF08042012353600023C2F80031014AEE
:1039A80013707047350C0020014B01221A707047C4
:1039B800350C00204FF08043D3F8003123B9034B76
:1039C800187800F0010070470120FAE7350C002054
:1039D80070B50A4D012604462E70FFF7EBFF30B98B
:1039E8004FF080436E706C60C3F8046370BD002CA8
:1039F800FCD0A04700236B60F8E700BF380C00201C
:103A0800024B00221A705A705A607047380C002016
:103A180010B5034C208100F091FB608110BD00BF00
:103A2800380C0020014B9889704700BF380C0020E3
:103A3800014B1889704700BF380C0020014B58898A
:103A4800704700BF380C002008B509B3F8B14FF033
:103A5800FF331A46E0FB01320E498A4204D940F28C
:103A6800D3116D2002F09CFE180D40EA0230C3F31A
:103A78000F134FF22441B0FBF1F203EB0040064B69
:103A880003FB1200B0FBF1F040EA0240013008BD30
:103A98000846FCE73F420F00000024F410B5EFF39E
:103AA800108472B6064A937B0133DBB29373937B1F
:103AB800012B01D104F095FF04B962B610BD00BF17
:103AC800380C002038B5FFF7E9FFFFF773FF094C02
:103AD8004FF0804540B104F0AEFF01232B61042371
:103AE800E3730023237438BD0323E3730123C5F86C
:103AF8000433F6E7380C002010B5EFF3108472B6E3
:103B0800094A937B23B94FF4F8716D2002F048FEFF
:103B1800937B013BDBB29373937B0BB9FFF738FFC1
:103B280004B962B610BD00BF380C002038B5124C7D
:103B3800637CC3B9A37CB3B1227C013B9A4212DAFD
:103B4800FFF738FF054602F0ABFFA37C012B82BFCD
:103B5800237C0133237455B16369C31A0133022BE3
:103B680009D935B16061BDE83840FFF7ABBFA3693B
:103B7800F3E7A061F7E738BD380C002073B51B4D9B
:103B88006B7C63B9E86900F0030004F044FF30B1CE
:103B9800EFF3108372B6EA7B1AB103B962B602B0CA
:103BA80070BD0122EA7303B962B64FF08043082260
:103BB800C3F808234FF42073ADF80630BDF806406B
:103BC800A4B2631E9BB2ADF80630002CF6D14FF0BC
:103BD80080460748C6F80C4104F07AFF85F8214072
:103BE800FFF770FF0823C6F80433D8E7380C002025
:103BF800580C00202DE9F041384C94F82230002B65
:103C080069D04FF08043D3F80071D3F8046157B1FD
:103C18000122C3F8082363782BB163680025657017
:103C28000BB1984765604EB14FF080430022C3F84E
:103C380004210222C3F80823FFF7A0FF4FF08046B3
:103C48002748D6F80C8194F82150EDB204F044FFCF
:103C580020B14FF423716D2002F0A2FD47B1E37B40
:103C6800032B05D10423E37304F0E5FE012333613C
:103C7800B8F1000F16D04FF080430022C3F80C2192
:103C8800E37B042B02D040F2AA21E4E703F00AF810
:103C9800C0B14FF080430022C3F8342C0223E373F1
:103CA800FFF72AFF4DB1002384F82130E37B022B74
:103CB80001D1FFF707FFFFF71FFFBDE8F0410848F4
:103CC80004F019BF02F0CEFF0028E2D102F0E0FFB5
:103CD8000028DED1E2E7BDE8F08100BF380C002003
:103CE800580C002010B5044CE06900F0030004F003
:103CF80092FE0028F8D010BD380C0020F8B5054613
:103D080050B10278042A07D8437842B9013B1F2BE7
:103D180002D88378212B07D96FF0150077E0002BA4
:103D2800FAD18378002BF7D1814B0127C3F8807033
:103D3800BFF34F8FBFF36F8F4FF08046C3F880718A
:103D48007C4C4FF0FF33C6F808330023C6F8003127
:103D5800C6F80431C6F80C31A373AB88A38104F00C
:103D680045FE08B12770A773D6F80C24D6F80C3492
:103D7800D20303D5DF0701D5FFF716FE4FF4AF6076
:103D8800FFF746FE2B78A97863740022E261A174DC
:103D98002274042B4ED8DFE803F005033B494B009F
:103DA8000123E36104F029FE00284ED004F02CFE24
:103DB800E36903F00303984247D1AB79002B3ED166
:103DC800FFF790FFA37C6BB12B785BB9FFF7F2FD8F
:103DD800054602F065FE6FF00043002D00F0A58057
:103DE800C4E905034FF08043D3F80C24D3F80C340E
:103DF800D20303D5DB0701D5FFF7D6FD4C4A0123D3
:103E08000020E07384F82230C2F880311360F8BDD6
:103E1800FFF744FE4FF08043D3F80C14D3F80C247A
:103E2800CE03F9D5D007F7D50223BAE7424BB8E756
:103E3800424BB6E74FF47F716D2002F0B1FC4FF0B2
:103E480080430222C3F80423BCE74FF080430122D9
:103E5800DA600022C3F80421E269C3F8182502F0E9
:103E6800D9FE10B34FF080534FF08042D3F844325C
:103E7800C3F34233C2F83C3502F0CCFE10B34FF026
:103E880080430122C3F84C254FF0804301229A60F9
:103E98000222C3F80423AA79002A93D1D3F8042371
:103EA80091071CD440F2B331C6E702F0BDFE0028EA
:103EB800D8D102F0C3FE0028D4D102F0D3FE0028E6
:103EC800D0D1D9E702F0B0FE0028D8D102F0B6FE72
:103ED8000028D4D102F0C6FE0028D0D1D4E7184A71
:103EE8001669116941F010011161D3F8043106F027
:103EF80010060BB904F00CFE4FF08047D7F80431D8
:103F080083B1FFF7EFFE26B90D4A136923F01003BA
:103F180013614FF080430222C3F808230022C3F83C
:103F280004214FE704F0F2FDE8E7C4E9053059E75A
:103F380000E100E0380C002001000200010003004D
:103F480000ED00E0064B1A7810B5044632B901229C
:103F58001A70FFF7A3FD2046FFF73AFD002010BDB9
:103F68005B0C002010B5054C23782BB1FFF748FDFA
:103F780000232370FFF7C0FD002010BD5B0C00205C
:103F8800014B1879704700BF600C0020054B1A7967
:103F9800824283BF1B6800EB400003EB0010002047
:103FA800704700BF600C002043F60952C0F30803B5
:103FB80002FB03F3400A03F5807302FB00F000EBF9
:103FC8005320704743F6095CC0F3080210B50CFB98
:103FD80002F2C0F34E24030E43EA01230CFB04F063
:103FE800090E02F580724FEA411C00EB52205A017B
:103FF800B2EB030E4CEAD36C6CEB01044FEA841C61
:104008004FEA8E12B2EB0E024CEA9E6C6CEB040C7B
:104018004FEACC0C4CEA527CD200D31841EB0C018D
:10402800DA03C903801841EA534141F1000110BD88
:10403800430B48F2376C0CFB03F34FEA134C00B503
:10404800104B43F6095E0EFB1C0000FB03F35B0DEF
:104058000EFB03FE03EB4C230EF5745C0CF1080C0D
:10406800B0EB5C2F08D80EF5807EA0EB5E20C0B2C6
:104078000B6010705DF804FB013300200B601070BA
:104088005DF804FB6F0C0100F8B5274DA94246D82E
:10409800264E274F450F45EAC105A6FB0514C0F378
:1040A8004F31A40B01EB054107FB1411A6FB01518D
:1040B800890B41EA04411F4C04FB110448F2376C98
:1040C800600B0CFB00F04FEA104C43F6095E1A48EF
:1040D8000EFB1C4505FB00F0400D0EFB00FE00EB3F
:1040E8004C200EF5745C0CF1080CB5EB5C2F12D863
:1040F8000EF5807EA5EB5E2E5FFA8EFE069D85F896
:1041080000E00D0628184FEA112141F1000118605E
:1041180059601460F8BD01304FF0000EEEE79621AB
:104128009B2002F03DFB00BFFF7F841E83DE1B4304
:10413800000024F40080841E6F0C0100420B48F23A
:10414800376303FB02F2120C43F6095C074B0CFBC6
:10415800120101FB0333013B5B0D0CFB03FC500216
:10416800B1EB5C2F88BF0130184470476F0C010019
:1041780010B5094A92F80033202B03D13E210220C2
:1041880002F00EFB18214B43D018BDE81040D3585D
:1041980040680321184700BF680C00200C4B0D49EC
:1041A8001B78012B14BF4FF4E0224FF4C022C1F852
:1041B800482318BF0023C1F80823074A99000A4476
:1041C8000021012B42F8041B00D170470123F8E7B6
:1041D800A00F002000B0004040B1004070B5EFF3E0
:1041E800108472B6094A0A4B0025D2F80415D2F891
:1041F80004612EB1596801315960C2F80451F4E7DD
:104208005B6804B962B6C0E9001370BD00B0004035
:10421800A00F0020094BD3F80435C01A20F07F43C3
:1042280023F001033BB120F07F40B0F5000F8CBFB5
:104238000220002070470120704700BF00B00040F6
:1042480008B5124BD3F8042522F00302C3F804255D
:10425800D3F8082542F00302C3F80825102292FA81
:10426800A2F2B2FA82F2092A04DD094840F2913139
:1042780002F08CFAC3F810250122DA60054B4FF4DE
:104288008072C3F880211A6008BD00BF008000401A
:104298002E44010000E100E0114B4FF40062C3F826
:1042A8008020BFF34F8FBFF36F8FC3F880210D4B72
:1042B80001225A609A60D3F80425002AFBD10A49E2
:1042C800C3F808134FF4E021C3F84813C3F840219A
:1042D800C3F84421C3F84821C3F80421704700BF3C
:1042E80000E100E000B00040020007000D4B4FF471
:1042F8008072C3F88020BFF34F8FBFF36F8FC3F86E
:104308008021094B01214FF0FF325960C3F808237F
:104318000022C3F84025C3F840211961034B1A72E3
:10432800704700BF00E100E000800040A00F0020BF
:104338002448FF2310B54FF0FF32002443724FF09A
:10434800FF33C0E9042304704460FFF7CFFFFFF791
:10435800A3FF1D4A1D4BC2F800424FF400611960CB
:1043680080691B4930B901230B60194B0222C3F83D
:10437800042310BD174B184CC3F8A845C3F8AC0567
:10438800C3F85C194FF40021C3F804150521C2F8DD
:10439800401501211160D2F840110029FBD04FF4DB
:1043A8000021C3F8081501215160D1600021C2F82D
:1043B8004011C2F84015C3F8A815C3F8AC15C3F8E6
:1043C800AC15D2E7A00F00200080004000E100E01B
:1043D80000B0004000F0014040810040014BD3E9AB
:1043E80004017047A00F0020014BD3F80405704763
:1043F80000B0004013B56846FFF7F0FEDDE90004A1
:10440800FFF7D2FD024B0021E4FB030102B010BD0F
:104418000080841EB1F1FF3F08BFB0F1FF3F2DE9D6
:10442800F041404C05460E4638D13F4DD5F8003195
:104438007BB33E4E3E4BC6F808354FF00008FFF7F9
:10444800ADFE84F80980FFF751FFFFF7F9FE394BFD
:10445800C5F80081384FC6F8A8354FF40023C6F8D0
:10446800AC75C6F8043504F025FBD5F800312BB13E
:104478000123C5F800817B60FB60F4E7013041F15E
:1044880000010223C4E904012370FF236370BDE81F
:10449800F08104F00FFBC51C41F10006D4E9047358
:1044A800B34208BFAF42F2D0204B214AC3F80825D7
:1044B800FFF774FE1C4A4FF4803125F07F48002333
:1044C800C2F808134046C2F84813C2F84031FFF753
:1044D800A1FE20B14FF43F716C2002F061F9C2F8DF
:1044E8004085C2F844132378012B06D127F07F4773
:1044F8003846FFF78FFE0128FAD000236372FFF7D2
:10450800F5FEFFF79DFE094A01234FF00041237095
:10451800C2F8041504226270034AC4E90456C2F8BA
:104528004833B4E7A00F002000B0004000F001407D
:104538000000088000B100400080004037B540B15D
:10454800041FE4B2022C13D940F295316C2002F01A
:1045580027F9214B4FF48032C3F80823C3F84005EC
:10456800C3F84001D3F840310093009B03B030BD3D
:104578001A4D2B7893B16A7882420FD1184A19499B
:10458800C2F80815012B01D1FFF7B0FE00232B70EC
:104598004FF0FF324FF0FF33C5E90423124A4FF4BE
:1045A8008033A340C2F80833C2F8483304F5A8732F
:1045B80052F82300FFF72EFE012818BF0B4B22B23A
:1045C8004FEA84041CBF00211951084B53F82230CC
:1045D8000193019BCAE700BF00800040A00F0020A4
:1045E80000F001400000088000B0004040B10040E9
:1045F80070B52C4B30B1041FE4B2022C2AD94FF409
:1046080054710BE0D3E90401B1F1FF3F08BFB0F1E9
:10461800FF3F06D11B7A23B94FF44A716C2002F090
:10462800BFF812B94FF44B71F8E71F4B4FF48031C4
:104638000120C3F80413C3F840255864D3F844157F
:1046480000248A42C3F8444503D82046FFF776FF82
:10465800204670BD197829B15B78834202D14FF4A6
:104668005371DBE7114B124E22F07F41A200134435
:104678004FF48035A5400022C6F808530846C6F80E
:1046880048531A60FFF7C6FD48B904F5A87401201D
:1046980046F82410C6F80453C6F84453D9E7104620
:1046A800D7E700BFA00F00200080004040B10040C5
:1046B80000B0004008B5FFF771FD054B4FF0FF3221
:1046C800C3F808230022C3F84025C3F8402108BDD9
:1046D8000080004008B50122084B10B1C3F84423FC
:1046E80008BDC3F84823FFF701FE054B4FF0FF3123
:1046F80018704FF0FF30C3E90401F1E700B0004043
:10470800A00F0020F8B5164D164E00244FF4803740
:10471800D5F8043307FA04F21A4212D056F82430B6
:104728007BB1002346F8243004F5A87355F823001C
:10473800FFF770FD28B1201DC5F80823C0B201F0AD
:1047480007FC0134032CE3D1054BD3F8042132B123
:104758000022C3F80421044A536801335360F8BDAA
:1047680000B0004040B10040A00F002010B51C4C24
:10477800637AFF2B2DD0237883B10122022B22727A
:1047880021D1184B4FF40022C3F8082500232370C9
:104798004FF0FF324FF0FF33C4E90423124BD3F834
:1047A8000423D2031BD5D3F84021C2B14FF4803281
:1047B8000020C3F80823C3F84001FF236372BDE853
:1047C800104001F0C5BB022360782370FFF7B6FEE6
:1047D800E4E7054BD3F804330BB10720EFE710BD2E
:1047E800A00F002000F00140008000402DE9F04FAC
:1047F80093B01C460492CDE90201FFF7EFFD1823A0
:1048080001910646B849082004EB440213FB04044E
:10481800631801EBC202083265581F7BD3F8048085
:1048280093F80D9005970FCA0CAC25F07F4A84E8E1
:104838000F005046FFF7B8FBAC4B7C1C9842044471
:1048480000F288819C4200F39380002C55DBFFF72F
:10485800B1F8B9F1010F834608D0A54FD7E9022373
:10486800B3F1FF3F08BFB2F1FF3F4BD004F002F9AC
:10487800019B0690B3F1FF3F08BFB6F1FF3F03D09D
:10488800B54278EB030378D2029B0322EB1A9342DA
:1048980069DBBBF1000F00F0E88000230793029B5F
:1048A800B5EB030B039B68EB030704F0E3F809304F
:1048B800C217834577EB020380F0DB80049B012B52
:1048C80000F0E180079B002B5AD1019BB3F1FF3F19
:1048D80008BFB6F1FF3F53D0721B63EB0803042AED
:1048E80073F1000180F22881012A73F100033ADA9A
:1048F800DDF81CB026F07F4A52E004F1F45404F5C8
:104908009024A4E70028B1D104F0B4F8019B0690E4
:10491800B3F1FF3F08BFB6F1FF3F00F0A380B542F7
:1049280078EB0303C0F09E803B7C002B069B14BFF2
:1049380000221A463346EB1A9A4214DC01230793E5
:10494800D7E90232B2F1FF3F08BFB3F1FF3FA6D06B
:104958000699EB1A68EB02028B4272F100039ED2B1
:10496800B9F1010F9BD00024204613B0BDE8F08FA9
:1049780004F1614404F5F70469E73346002285E74A
:1049880028464146FFF746FD4FF0000BB8F1FF3FC0
:1049980008BFB5F1FF3F00F0E2802E46CDF8048055
:1049A8005046FFF701FB534B221A9A420DD3001BC6
:1049B80098427CD34D4B9A4200F2B380984240F221
:1049C800D880C0F1614202F5F702D3170020FFF743
:1049D8000FFE04460028C6D0454FB9F1010FD7E9AC
:1049E800022366D0BBF1000F40F08880B3F1FF3F8F
:1049F80008BFB2F1FF3F00F0A6800120FFF76AFE72
:104A08003B7C002B40F092806A1E68F10003062070
:104A1800FFF7EEFD002842D0B9694FF0804200232D
:104A28000B60C2F80835059B8DF83C3000238DF8E3
:104A3800403008934FF0FF324FF0FF33CDE90C5868
:104A4800CDE90A238DF83D9008AE0FCE2A4D0FC54B
:104A58000FCE0FC596E8030085E80300204613B083
:104A6800BDE8F08F029BC21C65E7214FCDF81CB052
:104A780066E7B9F1010B2846414618BF4FF0010B14
:104A8800FFF7C8FC82E7019BB3F1FF3F08BFB6F10F
:104A9800FF3F73D026F07F4A4FF0000B80E7BA69DA
:104AA8004FF080410123C1F808351360BBE742424B
:104AB8008BE7B3F1FF3F08BFB2F1FF3F24D1BBF151
:104AC800000F9DD0069BF21A019B4FF0050063F181
:104AD8000003FFF78DFD002846D03B7C002B93D1C7
:104AE80001233B7490E700BF680C0020FF7F841E01
:104AF800C00F00200040420F700F0020B3F1FF3FAD
:104B080008BFB2F1FF3FDDD003F0ACFF4FF0FF323A
:104B18004FF0FF33C7E90223BBF1000F3FF470AF3A
:104B2800D0E702F1F45202F590224EE70520FFF794
:104B380005FD00233B7467E728464146DDF81CB0B5
:104B4800FFF768FC22E703F08BFF03F0B3FFC7E928
:104B5800020152E740F20F41702001F021FE40F2BD
:104B68001B71702001F01CFE40F22121702001F021
:104B780017FE40F2D471702001F012FE40F27F61FE
:104B8800702001F00DFE00BF2DE9F04F8D4F7C7CA9
:104B980004EB44033B4483B05D78202D48D08A4B16
:104BA800E6B26400002B00F08980884BDFF8209281
:104BB800002B5FD005EB461207EB420A4FEA461876
:104BC8009AF81C30013BDBB2052B34D8814A12F825
:104BD80003B0BBF1080F2ED0AFF30080EFF31083C2
:104BE80072B634443C449AF81D206270A278AA42F6
:104BF80004BF2022A27013B9AFF3008062B6A844A4
:104C080005EB450509EBC50207EB4808506859F85C
:104C180035300122594688F81C2098477C7C04EBE3
:104C280044033B44E6B25D78202D4FEA4404C1D1E9
:104C380003B0BDE8F08F40F24A61702001F0B0FD8A
:104C480062B6A84405EB450509EBC50207EB480821
:104C5800506859F835300122594688F81C20984781
:104C68007C7C04EB44033B44E6B25D78202D4FEA9C
:104C78004404DDD005EB461207EB420A4FEA46181A
:104C88009AF81C30013BDBB2052BD4D8514A12F8F4
:104C980003B0BBF1080FCED0AFF30080EFF3108361
:104CA80072B634443C449AF81D206270A27895424A
:104CB80004BF2022A270002BC3D1C1E7434BDFF809
:104CC80014B1DFF80CA14FF02009002B4FD005EBF1
:104CD800461207EB42024FEA4618137F013BDBB24C
:104CE800052BA8D81BF803100829A4D0EFF31083CC
:104CF80072B634443C44527F6270A278954208BF31
:104D080084F80290002B52D0A84407EB480805EB22
:104D180045050AEBC5025AF835305068012288F873
:104D28001C2098477C7C04EB44033B44E6B25D7846
:104D3800202D4FEA4404CAD17AE762B6A84405EBAD
:104D480045050AEBC50207EB480850685AF83530A4
:104D5800012288F81C2098477C7C04EB44033B44E0
:104D6800E6B25D78202D4FEA44043FF461AF05EBCD
:104D7800461207EB42024FEA4618137F013BDBB2AB
:104D8800052B3FF658AF1BF8031008293FF453AF23
:104D9800EFF3108372B634443C44527F6270A278B9
:104DA800954208BF84F80290002BC7D1C5E701914E
:104DB800AFF3008062B6A844019905EB450507EBFF
:104DC8004808A6E7C00F002000000000000000000F
:104DD800680C0020202F01002DE9F04F85B0DFF886
:104DE8000C81019301EB41034FF0200C18F80340AC
:104DF80003916445924682F800C073D04B01DFF8F6
:104E0800F09006469B4610E0727B012A02D0427D54
:104E1800012A57D00BEB040308EB43038AF8004040
:104E28005B7F202BA4465DD01C4604EB440009EBB5
:104E3800C000D0E9032387683568716813EB070E53
:104E480042F10002754571EB02024FEA4403DBD2DE
:104E58001D46019B83F800C0039B4FEA431B28199A
:104E680009EBC0003768B368D0F808A07268C16859
:104E7800DB1942F100029A4571EB020310D3437D1E
:104E8800012B02D0737B012B03D0012005B0BDE8B4
:104E9800F08F03F0EFFDAAEB070701308742F4DA41
:104EA800019A254409EBC5051470A97DB27B0BEB6B
:104EB8000403914208EB430310D95C7F202CE4D013
:104EC8006500CCE7029303F0D5FDED1B0130854268
:104ED800A0DA029B9AF800C01D46BAE7002005B088
:104EE800BDE8F08F019B1C70CFE700BFC00F00200A
:104EF800680C00202DE9F04F83B00C4615461E467D
:104F08009DF83070FFF71AF922686368451946F171
:104F18000006954276EB030342D3DFF88C8005E068
:104F28005D4576EB09033BD3C4E900B90DF10703EE
:104F38000DF1060239462046FFF74EFF88BB9DF863
:104F4800073003EB430308EBC303D3E902A01A6954
:104F58001AF1030B40F1000012EB0B0B627B40F1DE
:104F68000009012ADCD05B7D012BD9D103F082FD39
:104F7800ABEB0A0301308342D2DA9DF8073003EB2A
:104F8800430308EBC303D3E902B903F073FD01300F
:104F980010EB0B0B49EBE0795D4576EB0903C3D2C7
:104FA800002003B0BDE8F08F680C00202DE9F04721
:104FB80015461C4612782F7A95F809C088B0002348
:104FC800E360C4E90033A7739DF8408084F80DC0FE
:104FD8000646A360E2730F46002A3AD1FEF7F2FFB5
:104FE800D5E9042C3C4BC31841F1000E9A427CEBE6
:104FF8000E030AD3013E47F1FF37C4E900674FF4B7
:105008007A73A36008B0BDE8F087263041F100014B
:1050180082427CEB0103EDD3501E04F10C036CF1CA
:105028000001009304AA06ABFFF72EF8049B6868FA
:1050380002330DF10F0205A91844FEF7F9FFDDE967
:10504800053207999B1A23F07F43C4E90021A36026
:10505800D8E7224804F10C0206A9FEF7E9FF204B25
:105068001B78202B24D01F490B69D1E9052108336F
:1050780042F1000A13EB01094AF1000A6B68207B30
:105088001844023005AA04F10801C4E9009AFEF7A1
:10509800CFFF2869CDF8008032463B462146FFF70E
:1050A80029FF0028AED1C4E9006708B0BDE8F08741
:1050B800637B16F1080947F1000A012BDED0FEF7E1
:1050C80079FC0028DAD103F0D5FC10EB09039946E6
:1050D8004AF1000AD2E700BF0040420FFF7F841E5A
:1050E800680F0020700F00202DE9F04700EB400307
:1050F800344DDFF8D480EC5C06464700FFF774F9BE
:105108004FF0200C4FEA461E04EB440108EBC101A6
:105118000EEB0403D1F808A00A69AAEB000929F0EC
:105128007F49B9F5000F05EB43030DD812EB0A02CE
:10513800121A22F07F42B2F5000F05D8BCF1200FF9
:105148000AD12046BDE8F0875B7F202BA4461C4689
:10515800DAD1BCF1200FF4D00CEB4613BA1905EBE9
:10516800430315F802805B7FAB54710144464FF04E
:10517800040E0B1905EB430322469445204683F899
:105188001CE05C7FF5D1BB192B440A4493F802E07C
:10519800BEF1200F5FFA8EFC18BF8C443E4418BF46
:1051A80005EB4C0C05EB4202354408BF83F801803F
:1051B8004FF0200318BF8CF81D80A8705377204645
:1051C800BDE8F087C00F0020680C00202DE9F041F1
:1051D80001EB41034A4DEE5C202E82B00C4680461E
:1051E8004FEA410740D1474B0BB1AFF3008003F0C2
:1051F80061FCAB7C0191202B0AD0434BD3E904E23C
:1052080010F1020C41F10003E64572EB030330D3C1
:10521800202E0AD042463346FFF7E8FA00283DD050
:105228000220AE7402B0BDE8F081D5E90223B3F1E3
:10523800FF3F08BFB2F1FF3F1FD12B7C43BB0420C7
:10524800FFF77CF9FFF736FA0020FFF743FAA96960
:105258004FF080422020A874002301200B60C2F880
:10526800083502B0BDE8F0810846FFF73DFF8642E9
:10527800B9D0002002B0BDE8F08103F0F3FB4FF095
:10528800FF334FF0FF32C5E902232B7C002BD6D029
:105298000520FFF753F900232B74D0E73A1906EBE2
:1052A800441305EB430315F802C05B7FAB5461015F
:1052B8006246042013468A1805EB42029E42107784
:1052C800527FF7D13A192A443C449678F0B2202EFE
:1052D80018BF4018194418BF05EB400005EB410101
:1052E800254418BF80F81DC0AB704FF000004FF088
:1052F800200308BF82F801C04B7702B0BDE8F081F7
:10530800C00F002000000000700F002038B5164ABA
:10531800164D4FF0FF304FF0FF310023C2E9020174
:10532800C5E90201202142F22000A970136082F829
:105338002030A9741C4628806B742B7405F11C025C
:1053480002F814300134202CFAD1094801F0E6FBA8
:10535800084B094A1C70107001F0D0FCA861FEF7D8
:10536800E7FF0123EB7438BD700F0020C00F002049
:10537800914B0000680F0020980F00202DE9F04F96
:1053880083B003F097FBDFF8688206460C46FFF708
:1053980091F94FF0FF334FF0FF32C8E9022398F834
:1053A8002030D3B9D8F81030D8F81820D8F814100D
:1053B8009048023341F100019B1802F5DF62A0FB1F
:1053C80002024FEA922241F100019B1841F10001CB
:1053D8009E4274EB010380F0FB804FF0FF304FF0EA
:1053E800FF31FFF717F8844A92F800B0BBF1200F9D
:1053F80000F0E980814D20231370AB746B7C002290
:10540800C8F8002003EB43025FFA83F9AF5C5B0046
:10541800202F00930AD0DFF8E8A107EB47030AEB37
:10542800C3037A00D97D012900F0A880009BDFF82A
:10543800D4A103EB09062E444FEA49173478202CEF
:1054480004D04846FFF750FE8442F7D1BAF1000F66
:1054580001D0AFF3008003F02DFBAB7C202B09D0EB
:10546800D8E9042310F1020E41F1000C724573EBE8
:105478000C03E3D3202C34D023460122FFF7B6F9DE
:10548800002852D0AC7407EB0B0305EB43031A7FDB
:10549800022A1BD1009A4A442A4406211977917896
:1054A800CBB220291CBFDB1905EB43035F4418BFAF
:1054B80083F81DB0009B08BF82F801B04B442B4411
:1054C80005EB470783F802B020237B77FF23AB71F6
:1054D800009B4B441D446B78202B60D103B0BDE882
:1054E800F08FD5E90223B3F1FF3F08BFB2F1FF3FC8
:1054F80007D003F0B7FA4FF0FF324FF0FF33C5E99A
:1055080002232B7CA3BB0420FFF718F8FFF7D2F87F
:105518000020FFF7DFF8A9694FF080420023202020
:10552800A8740B60C2F80835ADE73B1905EB4303D7
:1055380030785B7F3370024604211346BA1805EBB6
:1055480042029C421177527FF7D1B178B370CAB248
:1055580020291CBFD21905EB42023B4405EB43034B
:1055680018BF50774FF0200208BF70705A7765E770
:105578000520FEF7E3FF00232B74C4E75B7D012BB6
:1055880014D1033644F1000417440AEBC70ADAE9D8
:105598000223B242A34128BFCAE9026446E71A4B74
:1055A800187803B0BDE8F04F01F0E4BA0192FEF7B5
:1055B80001FA019A0028E4D103F05CFA8619019AED
:1055C80044F10004E0E740F2B121702001F0E8F86E
:1055D800094B0B4A1B78182101FB03F3D01807214C
:1055E8004068D358984740F2A621702001F0D8F8B7
:1055F800700F00209300DC92680F0020C00F00207D
:10560800680C002000000000980F002038B50C46F8
:10561800054603F035FA11494B7C01F11C0C5FFA81
:1056280083FE0CEB831C002302E00133202B13D0F4
:105638001CF81320D8B2002AF7D1094A03EB4E1EF2
:1056480003EB430301EB4E0142F8335002EBC30373
:1056580001220A775C6038BD184638BDC00F0020AB
:10566800680C00201F2808D80A494B7C00EB43131C
:1056780001EB43031A7F012A01D0002070474B7CBD
:1056880000EB431301EB43034FF0000C104683F883
:105698001CC07047C00F002010B5054CD4E90401A8
:1056A800FEF790FC237F0133181841F1000110BD6B
:1056B800700F0020014BD3F8400570470080004070
:1056C8000378002B40F0D7802DE9F04F6F4A5368DC
:1056D800C3F3080389B08146002B40F0B8806C4EB4
:1056E8006C4FDFF8B4B106F11C0A27B1002140F273
:1056F8003C40AFF30080757CEDB24FF00003B3710E
:1057080027B1002140F24140AFF300800AEB851E2B
:10571800BEE80F006C1C04F001080AEB881CACE81A
:105728000F00BEE80F00ACE80F00BEE80F00ACE8C1
:105738000F009EE80F0044468CE80F002DB227B1F9
:1057480000214FF47370AFF3008005EB450504EBBF
:1057580044047319725B9B7832533444A37057B175
:1057680000214FF47470AFF3008027B1002140F29C
:105778004640AFF3008003F09DF9CDF8008004ABFC
:105788004A4604460D46FFF711FC27B1002140F2B6
:105798004D40AFF30080414B1B78202B3FD0DBF806
:1057A8001030DBF81420DBF81810083342F100023F
:1057B8005B1842F10002DDE90401984271EB020C2A
:1057C800CDF8008022D3364822462B4604A9FFF79D
:1057D80091FB98B1DDE90401FEF7F4FB9DF81C305C
:1057E80001331B1841F10001C9F81030C9F8141031
:1057F80027B100214FF48C60AFF30080B379002B00
:105808007FF473AF012009B0BDE8F08FCDE9043211
:1058180004A922462B462248FFF76CFBDAE79DF8DD
:105828001D1014F1080345F100020129C3D0CDE988
:105838000232FEF7BFF8DDE902320028BBD103F0DF
:1058480019F9029B039AC31842F10002B3E7103B0F
:1058580059B2002911DB01F1604101F5614191F86C
:10586800000340090028CED0094E0A4FDFF828B0BF
:1058780006F11C0A39E70020704703F00F03043BC8
:105888001344187E40090028EED1BCE700ED00E083
:10589800C00F002000000000700F0020680F0020DB
:1058A8000040420F2DE9F04FAC4A53688FB0C3F364
:1058B800080383460491002B40F062810823039378
:1058C800049B1B78012B00F23D82A54E26B10021D6
:1058D80040F22E50AFF300800023A24C05934FF006
:1058E800010926B1002140F23B50AFF30080B9F125
:1058F800000F04D19C4B0BB1AFF3008062B6657CFE
:10590800EDB24FF00003A371039B002B40F0988089
:10591800A84626B1002140F24F50AFF3008003F0B3
:10592800C9F8049A00950AAB8246FFF73FFB26B1F7
:10593800002140F25750AFF300800BEB481904EBFD
:1059480049094FEA481799F81C30013B012B75D8D3
:105958000A992AF07F4AA1EB0A0222F07F4323F03A
:105968000103002B40F0BD8008EB4802224407EBFE
:105978000B03907804EB43030421202819774FEA9E
:105988004803C1B200F09681394404EB410181F823
:105998001DB0434423445F4404EB470783F802B037
:1059A80020237B7700230593012726B1002140F2AD
:1059B8005C50AFF300806D4B0BB1AFF30080EFF399
:1059C8001088C14672B6A379002B8AD1684B0BEBBD
:1059D8004B0C03EBCC0C0AAB0FCB0CF1080C8CE88E
:1059E8000F008FB1039B002B00F0EA80059B23B1C9
:1059F800604B1B78202B00F06081637CDB4303F055
:105A080001036374FF23A371B8F1000F04D1564B4F
:105A18000BB1AFF3008062B626B1002140F293507B
:105A2800AFF30080002F4AD126B1002140F29F50E9
:105A3800AFF3008038460FB0BDE8F08F0027B4E719
:105A48004D4B05F1010A0AF0010A03EB851E03EB31
:105A58008A1CBEE80F00ACE80F00BEE80F00ACE8F7
:105A68000F00BEE80F00ACE80F009EE80F002DB253
:105A78008CE80F00D0460FFA8AF726B100214FF4C0
:105A88007370AFF3008005EB450507EB4707631913
:105A9800625B9B78E2532744BB7056B100214FF4F8
:105AA8007470AFF3008026B1002140F24550AFF387
:105AB8000080A379002B7FF414AF554629E7637C57
:105AC80003EB43031C446378202BADD026B100219F
